{
  "_format": "hh-sol-artifact-1",
  "contractName": "CreatorTip",
  "sourceName": "contracts/CreatorTip.sol",
  "abi": [
    {
      "inputs": [
        {
          "internalType": "address",
          "name": "_openActionAddress",
          "type": "address"
        }
      ],
      "stateMutability": "nonpayable",
      "type": "constructor"
    },
    {
      "inputs": [
        {
          "internalType": "address",
          "name": "sender",
          "type": "address"
        },
        {
          "internalType": "uint256",
          "name": "tokenId",
          "type": "uint256"
        },
        {
          "internalType": "address",
          "name": "owner",
          "type": "address"
        }
      ],
      "name": "ERC721IncorrectOwner",
      "type": "error"
    },
    {
      "inputs": [
        {
          "internalType": "address",
          "name": "operator",
          "type": "address"
        },
        {
          "internalType": "uint256",
          "name": "tokenId",
          "type": "uint256"
        }
      ],
      "name": "ERC721InsufficientApproval",
      "type": "error"
    },
    {
      "inputs": [
        {
          "internalType": "address",
          "name": "approver",
          "type": "address"
        }
      ],
      "name": "ERC721InvalidApprover",
      "type": "error"
    },
    {
      "inputs": [
        {
          "internalType": "address",
          "name": "operator",
          "type": "address"
        }
      ],
      "name": "ERC721InvalidOperator",
      "type": "error"
    },
    {
      "inputs": [
        {
          "internalType": "address",
          "name": "owner",
          "type": "address"
        }
      ],
      "name": "ERC721InvalidOwner",
      "type": "error"
    },
    {
      "inputs": [
        {
          "internalType": "address",
          "name": "receiver",
          "type": "address"
        }
      ],
      "name": "ERC721InvalidReceiver",
      "type": "error"
    },
    {
      "inputs": [
        {
          "internalType": "address",
          "name": "sender",
          "type": "address"
        }
      ],
      "name": "ERC721InvalidSender",
      "type": "error"
    },
    {
      "inputs": [
        {
          "internalType": "uint256",
          "name": "tokenId",
          "type": "uint256"
        }
      ],
      "name": "ERC721NonexistentToken",
      "type": "error"
    },
    {
      "inputs": [
        {
          "internalType": "address",
          "name": "owner",
          "type": "address"
        }
      ],
      "name": "OwnableInvalidOwner",
      "type": "error"
    },
    {
      "inputs": [
        {
          "internalType": "address",
          "name": "account",
          "type": "address"
        }
      ],
      "name": "OwnableUnauthorizedAccount",
      "type": "error"
    },
    {
      "anonymous": false,
      "inputs": [
        {
          "indexed": true,
          "internalType": "address",
          "name": "owner",
          "type": "address"
        },
        {
          "indexed": true,
          "internalType": "address",
          "name": "approved",
          "type": "address"
        },
        {
          "indexed": true,
          "internalType": "uint256",
          "name": "tokenId",
          "type": "uint256"
        }
      ],
      "name": "Approval",
      "type": "event"
    },
    {
      "anonymous": false,
      "inputs": [
        {
          "indexed": true,
          "internalType": "address",
          "name": "owner",
          "type": "address"
        },
        {
          "indexed": true,
          "internalType": "address",
          "name": "operator",
          "type": "address"
        },
        {
          "indexed": false,
          "internalType": "bool",
          "name": "approved",
          "type": "bool"
        }
      ],
      "name": "ApprovalForAll",
      "type": "event"
    },
    {
      "anonymous": false,
      "inputs": [
        {
          "indexed": false,
          "internalType": "uint256",
          "name": "_fromTokenId",
          "type": "uint256"
        },
        {
          "indexed": false,
          "internalType": "uint256",
          "name": "_toTokenId",
          "type": "uint256"
        }
      ],
      "name": "BatchMetadataUpdate",
      "type": "event"
    },
    {
      "anonymous": false,
      "inputs": [
        {
          "indexed": false,
          "internalType": "uint256",
          "name": "_tokenId",
          "type": "uint256"
        }
      ],
      "name": "MetadataUpdate",
      "type": "event"
    },
    {
      "anonymous": false,
      "inputs": [
        {
          "indexed": true,
          "internalType": "address",
          "name": "previousOwner",
          "type": "address"
        },
        {
          "indexed": true,
          "internalType": "address",
          "name": "newOwner",
          "type": "address"
        }
      ],
      "name": "OwnershipTransferred",
      "type": "event"
    },
    {
      "anonymous": false,
      "inputs": [
        {
          "indexed": true,
          "internalType": "address",
          "name": "tipper",
          "type": "address"
        },
        {
          "indexed": false,
          "internalType": "uint256",
          "name": "tokenId",
          "type": "uint256"
        },
        {
          "indexed": false,
          "internalType": "string",
          "name": "tokenURI",
          "type": "string"
        }
      ],
      "name": "SupporterNFTMinted",
      "type": "event"
    },
    {
      "anonymous": false,
      "inputs": [
        {
          "indexed": true,
          "internalType": "address",
          "name": "creator",
          "type": "address"
        },
        {
          "indexed": true,
          "internalType": "address",
          "name": "tipper",
          "type": "address"
        },
        {
          "indexed": false,
          "internalType": "uint256",
          "name": "amount",
          "type": "uint256"
        },
        {
          "indexed": false,
          "internalType": "address",
          "name": "token",
          "type": "address"
        }
      ],
      "name": "Tipped",
      "type": "event"
    },
    {
      "anonymous": false,
      "inputs": [
        {
          "indexed": true,
          "internalType": "address",
          "name": "from",
          "type": "address"
        },
        {
          "indexed": true,
          "internalType": "address",
          "name": "to",
          "type": "address"
        },
        {
          "indexed": true,
          "internalType": "uint256",
          "name": "tokenId",
          "type": "uint256"
        }
      ],
      "name": "Transfer",
      "type": "event"
    },
    {
      "inputs": [
        {
          "internalType": "address",
          "name": "to",
          "type": "address"
        },
        {
          "internalType": "uint256",
          "name": "tokenId",
          "type": "uint256"
        }
      ],
      "name": "approve",
      "outputs": [],
      "stateMutability": "nonpayable",
      "type": "function"
    },
    {
      "inputs": [
        {
          "internalType": "address",
          "name": "owner",
          "type": "address"
        }
      ],
      "name": "balanceOf",
      "outputs": [
        {
          "internalType": "uint256",
          "name": "",
          "type": "uint256"
        }
      ],
      "stateMutability": "view",
      "type": "function"
    },
    {
      "inputs": [
        {
          "internalType": "uint256",
          "name": "tokenId",
          "type": "uint256"
        }
      ],
      "name": "getApproved",
      "outputs": [
        {
          "internalType": "address",
          "name": "",
          "type": "address"
        }
      ],
      "stateMutability": "view",
      "type": "function"
    },
    {
      "inputs": [
        {
          "internalType": "address",
          "name": "owner",
          "type": "address"
        },
        {
          "internalType": "address",
          "name": "operator",
          "type": "address"
        }
      ],
      "name": "isApprovedForAll",
      "outputs": [
        {
          "internalType": "bool",
          "name": "",
          "type": "bool"
        }
      ],
      "stateMutability": "view",
      "type": "function"
    },
    {
      "inputs": [],
      "name": "name",
      "outputs": [
        {
          "internalType": "string",
          "name": "",
          "type": "string"
        }
      ],
      "stateMutability": "view",
      "type": "function"
    },
    {
      "inputs": [],
      "name": "openActionAddress",
      "outputs": [
        {
          "internalType": "address",
          "name": "",
          "type": "address"
        }
      ],
      "stateMutability": "view",
      "type": "function"
    },
    {
      "inputs": [],
      "name": "owner",
      "outputs": [
        {
          "internalType": "address",
          "name": "",
          "type": "address"
        }
      ],
      "stateMutability": "view",
      "type": "function"
    },
    {
      "inputs": [
        {
          "internalType": "uint256",
          "name": "tokenId",
          "type": "uint256"
        }
      ],
      "name": "ownerOf",
      "outputs": [
        {
          "internalType": "address",
          "name": "",
          "type": "address"
        }
      ],
      "stateMutability": "view",
      "type": "function"
    },
    {
      "inputs": [],
      "name": "renounceOwnership",
      "outputs": [],
      "stateMutability": "nonpayable",
      "type": "function"
    },
    {
      "inputs": [
        {
          "internalType": "address",
          "name": "from",
          "type": "address"
        },
        {
          "internalType": "address",
          "name": "to",
          "type": "address"
        },
        {
          "internalType": "uint256",
          "name": "tokenId",
          "type": "uint256"
        }
      ],
      "name": "safeTransferFrom",
      "outputs": [],
      "stateMutability": "nonpayable",
      "type": "function"
    },
    {
      "inputs": [
        {
          "internalType": "address",
          "name": "from",
          "type": "address"
        },
        {
          "internalType": "address",
          "name": "to",
          "type": "address"
        },
        {
          "internalType": "uint256",
          "name": "tokenId",
          "type": "uint256"
        },
        {
          "internalType": "bytes",
          "name": "data",
          "type": "bytes"
        }
      ],
      "name": "safeTransferFrom",
      "outputs": [],
      "stateMutability": "nonpayable",
      "type": "function"
    },
    {
      "inputs": [
        {
          "internalType": "address",
          "name": "operator",
          "type": "address"
        },
        {
          "internalType": "bool",
          "name": "approved",
          "type": "bool"
        }
      ],
      "name": "setApprovalForAll",
      "outputs": [],
      "stateMutability": "nonpayable",
      "type": "function"
    },
    {
      "inputs": [
        {
          "internalType": "address",
          "name": "newAddress",
          "type": "address"
        }
      ],
      "name": "setOpenActionAddress",
      "outputs": [],
      "stateMutability": "nonpayable",
      "type": "function"
    },
    {
      "inputs": [
        {
          "internalType": "bytes4",
          "name": "interfaceId",
          "type": "bytes4"
        }
      ],
      "name": "supportsInterface",
      "outputs": [
        {
          "internalType": "bool",
          "name": "",
          "type": "bool"
        }
      ],
      "stateMutability": "view",
      "type": "function"
    },
    {
      "inputs": [],
      "name": "symbol",
      "outputs": [
        {
          "internalType": "string",
          "name": "",
          "type": "string"
        }
      ],
      "stateMutability": "view",
      "type": "function"
    },
    {
      "inputs": [
        {
          "internalType": "address",
          "name": "creator",
          "type": "address"
        },
        {
          "internalType": "uint256",
          "name": "amount",
          "type": "uint256"
        },
        {
          "internalType": "address",
          "name": "token",
          "type": "address"
        },
        {
          "internalType": "string",
          "name": "metadataURI",
          "type": "string"
        }
      ],
      "name": "tip",
      "outputs": [],
      "stateMutability": "payable",
      "type": "function"
    },
    {
      "inputs": [
        {
          "internalType": "uint256",
          "name": "tokenId",
          "type": "uint256"
        }
      ],
      "name": "tokenURI",
      "outputs": [
        {
          "internalType": "string",
          "name": "",
          "type": "string"
        }
      ],
      "stateMutability": "view",
      "type": "function"
    },
    {
      "inputs": [
        {
          "internalType": "address",
          "name": "from",
          "type": "address"
        },
        {
          "internalType": "address",
          "name": "to",
          "type": "address"
        },
        {
          "internalType": "uint256",
          "name": "tokenId",
          "type": "uint256"
        }
      ],
      "name": "transferFrom",
      "outputs": [],
      "stateMutability": "nonpayable",
      "type": "function"
    },
    {
      "inputs": [
        {
          "internalType": "address",
          "name": "newOwner",
          "type": "address"
        }
      ],
      "name": "transferOwnership",
      "outputs": [],
      "stateMutability": "nonpayable",
      "type": "function"
    }
  ],
  "bytecode": "0x60806040523480156200001157600080fd5b5060405162001b5b38038062001b5b83398101604081905262000034916200015d565b336040518060400160405280601481526020017f43726561746f7254697020537570706f727465720000000000000000000000008152506040518060400160405280600381526020016243545360e81b815250816000908162000098919062000234565b506001620000a7828262000234565b5050506001600160a01b038116620000d957604051631e4fbdf760e01b81526000600482015260240160405180910390fd5b620000e4816200010b565b50600980546001600160a01b0319166001600160a01b039290921691909117905562000300565b600780546001600160a01b038381166001600160a01b0319831681179093556040519116919082907f8be0079c531659141344cd1fd0a4f28419497f9722a3daafe3b4186f6b6457e090600090a35050565b6000602082840312156200017057600080fd5b81516001600160a01b03811681146200018857600080fd5b9392505050565b634e487b7160e01b600052604160045260246000fd5b600181811c90821680620001ba57607f821691505b602082108103620001db57634e487b7160e01b600052602260045260246000fd5b50919050565b601f8211156200022f57600081815260208120601f850160051c810160208610156200020a5750805b601f850160051c820191505b818110156200022b5782815560010162000216565b5050505b505050565b81516001600160401b038111156200025057620002506200018f565b6200026881620002618454620001a5565b84620001e1565b602080601f831160018114620002a05760008415620002875750858301515b600019600386901b1c1916600185901b1785556200022b565b600085815260208120601f198616915b82811015620002d157888601518255948401946001909101908401620002b0565b5085821015620002f05787850151600019600388901b60f8161c191681555b5050505050600190811b01905550565b61184b80620003106000396000f3fe6080604052600436106101145760003560e01c8063715018a6116100a0578063c87b56dd11610064578063c87b56dd14610300578063d171cdc214610320578063e7290f1c14610340578063e985e9c514610353578063f2fde38b1461037357600080fd5b8063715018a6146102785780638da5cb5b1461028d57806395d89b41146102ab578063a22cb465146102c0578063b88d4fde146102e057600080fd5b806323b872dd116100e757806323b872dd146101ca57806342842e0e146101ea578063452b47971461020a5780636352211e1461022a57806370a082311461024a57600080fd5b806301ffc9a71461011957806306fdde031461014e578063081812fc14610170578063095ea7b3146101a8575b600080fd5b34801561012557600080fd5b50610139610134366004611297565b610393565b60405190151581526020015b60405180910390f35b34801561015a57600080fd5b506101636103be565b6040516101459190611304565b34801561017c57600080fd5b5061019061018b366004611317565b610450565b6040516001600160a01b039091168152602001610145565b3480156101b457600080fd5b506101c86101c336600461134c565b610479565b005b3480156101d657600080fd5b506101c86101e5366004611376565b610488565b3480156101f657600080fd5b506101c8610205366004611376565b610518565b34801561021657600080fd5b50600954610190906001600160a01b031681565b34801561023657600080fd5b50610190610245366004611317565b610538565b34801561025657600080fd5b5061026a6102653660046113b2565b610543565b604051908152602001610145565b34801561028457600080fd5b506101c861058b565b34801561029957600080fd5b506007546001600160a01b0316610190565b3480156102b757600080fd5b5061016361059f565b3480156102cc57600080fd5b506101c86102db3660046113db565b6105ae565b3480156102ec57600080fd5b506101c86102fb366004611428565b6105b9565b34801561030c57600080fd5b5061016361031b366004611317565b6105d1565b34801561032c57600080fd5b506101c861033b3660046113b2565b6106e2565b6101c861034e366004611504565b61070c565b34801561035f57600080fd5b5061013961036e36600461159f565b6108fe565b34801561037f57600080fd5b506101c861038e3660046113b2565b61092c565b60006001600160e01b03198216632483248360e11b14806103b857506103b88261096a565b92915050565b6060600080546103cd906115d2565b80601f01602080910402602001604051908101604052809291908181526020018280546103f9906115d2565b80156104465780601f1061041b57610100808354040283529160200191610446565b820191906000526020600020905b81548152906001019060200180831161042957829003601f168201915b5050505050905090565b600061045b826109ba565b506000828152600460205260409020546001600160a01b03166103b8565b6104848282336109f3565b5050565b6001600160a01b0382166104b757604051633250574960e11b8152600060048201526024015b60405180910390fd5b60006104c4838333610a00565b9050836001600160a01b0316816001600160a01b031614610512576040516364283d7b60e01b81526001600160a01b03808616600483015260248201849052821660448201526064016104ae565b50505050565b610533838383604051806020016040528060008152506105b9565b505050565b60006103b8826109ba565b60006001600160a01b03821661056f576040516322718ad960e21b8152600060048201526024016104ae565b506001600160a01b031660009081526003602052604090205490565b610593610af9565b61059d6000610b26565b565b6060600180546103cd906115d2565b610484338383610b78565b6105c4848484610488565b6105123385858585610c17565b60606105dc826109ba565b50600082815260066020526040812080546105f6906115d2565b80601f0160208091040260200160405190810160405280929190818152602001828054610622906115d2565b801561066f5780601f106106445761010080835404028352916020019161066f565b820191906000526020600020905b81548152906001019060200180831161065257829003601f168201915b50505050509050600061068d60408051602081019091526000815290565b9050805160000361069f575092915050565b8151156106d15780826040516020016106b992919061160c565b60405160208183030381529060405292505050919050565b6106da84610d40565b949350505050565b6106ea610af9565b600980546001600160a01b0319166001600160a01b0392909216919091179055565b6009546001600160a01b0316331461077f5760405162461bcd60e51b815260206004820152603060248201527f43726561746f725469703a2063616c6c6572206973206e6f7420617574686f7260448201526f34bd32b21027b832b71020b1ba34b7b760811b60648201526084016104ae565b326001600160a01b038416610824578434146107e85760405162461bcd60e51b815260206004820152602260248201527f43726561746f725469703a20696e636f7272656374204d4154494320616d6f756044820152611b9d60f21b60648201526084016104ae565b6040516001600160a01b0387169086156108fc029087906000818181858888f1935050505015801561081e573d6000803e3d6000fd5b506108a1565b6040516323b872dd60e01b81526001600160a01b0382811660048301528781166024830152604482018790528516906323b872dd906064016020604051808303816000875af115801561087b573d6000803e3d6000fd5b505050506040513d601f19601f8201168201806040525081019061089f919061163b565b505b604080518681526001600160a01b03868116602083015280841692908916917f12a8b8541da0de03d53227668b3811e0453f5d047a0f78c65ba7cb9c7dce590c910160405180910390a36108f6818484610db5565b505050505050565b6001600160a01b03918216600090815260056020908152604080832093909416825291909152205460ff1690565b610934610af9565b6001600160a01b03811661095e57604051631e4fbdf760e01b8152600060048201526024016104ae565b61096781610b26565b50565b60006001600160e01b031982166380ac58cd60e01b148061099b57506001600160e01b03198216635b5e139f60e01b145b806103b857506301ffc9a760e01b6001600160e01b03198316146103b8565b6000818152600260205260408120546001600160a01b0316806103b857604051637e27328960e01b8152600481018490526024016104ae565b6105338383836001610e62565b6000828152600260205260408120546001600160a01b0390811690831615610a2d57610a2d818486610f68565b6001600160a01b03811615610a6b57610a4a600085600080610e62565b6001600160a01b038116600090815260036020526040902080546000190190555b6001600160a01b03851615610a9a576001600160a01b0385166000908152600360205260409020805460010190555b60008481526002602052604080822080546001600160a01b0319166001600160a01b0389811691821790925591518793918516917fddf252ad1be2c89b69c2b068fc378daa952ba7f163c4a11628f55a4df523b3ef91a4949350505050565b6007546001600160a01b0316331461059d5760405163118cdaa760e01b81523360048201526024016104ae565b600780546001600160a01b038381166001600160a01b0319831681179093556040519116919082907f8be0079c531659141344cd1fd0a4f28419497f9722a3daafe3b4186f6b6457e090600090a35050565b6001600160a01b038216610baa57604051630b61174360e31b81526001600160a01b03831660048201526024016104ae565b6001600160a01b03838116600081815260056020908152604080832094871680845294825291829020805460ff191686151590811790915591519182527f17307eab39ab6107e8899845ad3d59bd9653f200f220920489ca2b5937696c31910160405180910390a3505050565b6001600160a01b0383163b15610d3957604051630a85bd0160e11b81526001600160a01b0384169063150b7a0290610c59908890889087908790600401611658565b6020604051808303816000875af1925050508015610c94575060408051601f3d908101601f19168201909252610c9191810190611695565b60015b610cfd573d808015610cc2576040519150601f19603f3d011682016040523d82523d6000602084013e610cc7565b606091505b508051600003610cf557604051633250574960e11b81526001600160a01b03851660048201526024016104ae565b805181602001fd5b6001600160e01b03198116630a85bd0160e11b146108f657604051633250574960e11b81526001600160a01b03851660048201526024016104ae565b5050505050565b6060610d4b826109ba565b506000610d6360408051602081019091526000815290565b90506000815111610d835760405180602001604052806000815250610dae565b80610d8d84610fcc565b604051602001610d9e92919061160c565b6040516020818303038152906040525b9392505050565b600854610dc2848261105f565b610e028184848080601f01602080910402602001604051908101604052809392919081815260200183838082843760009201919091525061107992505050565b836001600160a01b03167fd19eaa3a3e19e32d16d5969e6e28376d83c89960632dbabc124bf5bf03c0683d828585604051610e3f939291906116b2565b60405180910390a260088054906000610e57836116e8565b919050555050505050565b8080610e7657506001600160a01b03821615155b15610f38576000610e86846109ba565b90506001600160a01b03831615801590610eb25750826001600160a01b0316816001600160a01b031614155b8015610ec55750610ec381846108fe565b155b15610eee5760405163a9fbf51f60e01b81526001600160a01b03841660048201526024016104ae565b8115610f365783856001600160a01b0316826001600160a01b03167f8c5be1e5ebec7d5bd14f71427d1e84f3dd0314c0f7b2291e5b200ac8c7c3b92560405160405180910390a45b505b5050600090815260046020526040902080546001600160a01b0319166001600160a01b0392909216919091179055565b610f738383836110c9565b610533576001600160a01b038316610fa157604051637e27328960e01b8152600481018290526024016104ae565b60405163177e802f60e01b81526001600160a01b0383166004820152602481018290526044016104ae565b60606000610fd98361112c565b600101905060008167ffffffffffffffff811115610ff957610ff9611412565b6040519080825280601f01601f191660200182016040528015611023576020820181803683370190505b5090508181016020015b600019016f181899199a1a9b1b9c1cb0b131b232b360811b600a86061a8153600a850494508461102d57509392505050565b610484828260405180602001604052806000815250611204565b60008281526006602052604090206110918282611755565b506040518281527ff8e1a15aba9398e019f0b49df1a4fde98ee17ae345cb5f6b5e2c27f5033e8ce79060200160405180910390a15050565b60006001600160a01b038316158015906106da5750826001600160a01b0316846001600160a01b03161480611103575061110384846108fe565b806106da5750506000908152600460205260409020546001600160a01b03908116911614919050565b60008072184f03e93ff9f4daa797ed6e38ed64bf6a1f0160401b831061116b5772184f03e93ff9f4daa797ed6e38ed64bf6a1f0160401b830492506040015b6d04ee2d6d415b85acef81000000008310611197576d04ee2d6d415b85acef8100000000830492506020015b662386f26fc1000083106111b557662386f26fc10000830492506010015b6305f5e10083106111cd576305f5e100830492506008015b61271083106111e157612710830492506004015b606483106111f3576064830492506002015b600a83106103b85760010192915050565b61120e838361121c565b610533336000858585610c17565b6001600160a01b03821661124657604051633250574960e11b8152600060048201526024016104ae565b600061125483836000610a00565b90506001600160a01b03811615610533576040516339e3563760e11b8152600060048201526024016104ae565b6001600160e01b03198116811461096757600080fd5b6000602082840312156112a957600080fd5b8135610dae81611281565b60005b838110156112cf5781810151838201526020016112b7565b50506000910152565b600081518084526112f08160208601602086016112b4565b601f01601f19169290920160200192915050565b602081526000610dae60208301846112d8565b60006020828403121561132957600080fd5b5035919050565b80356001600160a01b038116811461134757600080fd5b919050565b6000806040838503121561135f57600080fd5b61136883611330565b946020939093013593505050565b60008060006060848603121561138b57600080fd5b61139484611330565b92506113a260208501611330565b9150604084013590509250925092565b6000602082840312156113c457600080fd5b610dae82611330565b801515811461096757600080fd5b600080604083850312156113ee57600080fd5b6113f783611330565b91506020830135611407816113cd565b809150509250929050565b634e487b7160e01b600052604160045260246000fd5b6000806000806080858703121561143e57600080fd5b61144785611330565b935061145560208601611330565b925060408501359150606085013567ffffffffffffffff8082111561147957600080fd5b818701915087601f83011261148d57600080fd5b81358181111561149f5761149f611412565b604051601f8201601f19908116603f011681019083821181831017156114c7576114c7611412565b816040528281528a60208487010111156114e057600080fd5b82602086016020830137600060208483010152809550505050505092959194509250565b60008060008060006080868803121561151c57600080fd5b61152586611330565b94506020860135935061153a60408701611330565b9250606086013567ffffffffffffffff8082111561155757600080fd5b818801915088601f83011261156b57600080fd5b81358181111561157a57600080fd5b89602082850101111561158c57600080fd5b9699959850939650602001949392505050565b600080604083850312156115b257600080fd5b6115bb83611330565b91506115c960208401611330565b90509250929050565b600181811c908216806115e657607f821691505b60208210810361160657634e487b7160e01b600052602260045260246000fd5b50919050565b6000835161161e8184602088016112b4565b8351908301906116328183602088016112b4565b01949350505050565b60006020828403121561164d57600080fd5b8151610dae816113cd565b6001600160a01b038581168252841660208201526040810183905260806060820181905260009061168b908301846112d8565b9695505050505050565b6000602082840312156116a757600080fd5b8151610dae81611281565b83815260406020820152816040820152818360608301376000818301606090810191909152601f909201601f1916010192915050565b60006001820161170857634e487b7160e01b600052601160045260246000fd5b5060010190565b601f82111561053357600081815260208120601f850160051c810160208610156117365750805b601f850160051c820191505b818110156108f657828155600101611742565b815167ffffffffffffffff81111561176f5761176f611412565b6117838161177d84546115d2565b8461170f565b602080601f8311600181146117b857600084156117a05750858301515b600019600386901b1c1916600185901b1785556108f6565b600085815260208120601f198616915b828110156117e7578886015182559484019460019091019084016117c8565b50858210156118055787850151600019600388901b60f8161c191681555b5050505050600190811b0190555056fea264697066735822122093e6685ad8dfdab26cf1f4ba921a39894e4d8435e7ab5853f4377bfba2b15a9464736f6c63430008140033",
  "linkReferences": {},
  "deployedLinkReferences": {}
}