{
  "_format": "hh-sol-artifact-1",
  "contractName": "CreatorTip",
  "sourceName": "contracts/CreatorTip.sol",
  "abi": [
    {
      "inputs": [
        {
          "internalType": "address",
          "name": "_openActionAddress",
          "type": "address"
        },
        {
          "internalType": "address[]",
          "name": "_initialTokens",
          "type": "address[]"
        }
      ],
      "stateMutability": "nonpayable",
      "type": "constructor"
    },
    {
      "anonymous": false,
      "inputs": [
        {
          "indexed": true,
          "internalType": "address",
          "name": "owner",
          "type": "address"
        },
        {
          "indexed": true,
          "internalType": "address",
          "name": "approved",
          "type": "address"
        },
        {
          "indexed": true,
          "internalType": "uint256",
          "name": "tokenId",
          "type": "uint256"
        }
      ],
      "name": "Approval",
      "type": "event"
    },
    {
      "anonymous": false,
      "inputs": [
        {
          "indexed": true,
          "internalType": "address",
          "name": "owner",
          "type": "address"
        },
        {
          "indexed": true,
          "internalType": "address",
          "name": "operator",
          "type": "address"
        },
        {
          "indexed": false,
          "internalType": "bool",
          "name": "approved",
          "type": "bool"
        }
      ],
      "name": "ApprovalForAll",
      "type": "event"
    },
    {
      "anonymous": false,
      "inputs": [
        {
          "indexed": false,
          "internalType": "uint256",
          "name": "_fromTokenId",
          "type": "uint256"
        },
        {
          "indexed": false,
          "internalType": "uint256",
          "name": "_toTokenId",
          "type": "uint256"
        }
      ],
      "name": "BatchMetadataUpdate",
      "type": "event"
    },
    {
      "anonymous": false,
      "inputs": [
        {
          "indexed": false,
          "internalType": "uint256",
          "name": "_tokenId",
          "type": "uint256"
        }
      ],
      "name": "MetadataUpdate",
      "type": "event"
    },
    {
      "anonymous": false,
      "inputs": [
        {
          "indexed": true,
          "internalType": "address",
          "name": "previousOwner",
          "type": "address"
        },
        {
          "indexed": true,
          "internalType": "address",
          "name": "newOwner",
          "type": "address"
        }
      ],
      "name": "OwnershipTransferred",
      "type": "event"
    },
    {
      "anonymous": false,
      "inputs": [
        {
          "indexed": true,
          "internalType": "address",
          "name": "tipper",
          "type": "address"
        },
        {
          "indexed": false,
          "internalType": "uint256",
          "name": "tokenId",
          "type": "uint256"
        },
        {
          "indexed": false,
          "internalType": "string",
          "name": "tokenURI",
          "type": "string"
        }
      ],
      "name": "SupporterNFTMinted",
      "type": "event"
    },
    {
      "anonymous": false,
      "inputs": [
        {
          "indexed": true,
          "internalType": "address",
          "name": "creator",
          "type": "address"
        },
        {
          "indexed": true,
          "internalType": "address",
          "name": "tipper",
          "type": "address"
        },
        {
          "indexed": false,
          "internalType": "uint256",
          "name": "amount",
          "type": "uint256"
        },
        {
          "indexed": false,
          "internalType": "address",
          "name": "token",
          "type": "address"
        },
        {
          "indexed": false,
          "internalType": "uint256",
          "name": "chainId",
          "type": "uint256"
        }
      ],
      "name": "Tipped",
      "type": "event"
    },
    {
      "anonymous": false,
      "inputs": [
        {
          "indexed": false,
          "internalType": "address",
          "name": "token",
          "type": "address"
        }
      ],
      "name": "TokenAdded",
      "type": "event"
    },
    {
      "anonymous": false,
      "inputs": [
        {
          "indexed": false,
          "internalType": "address",
          "name": "token",
          "type": "address"
        }
      ],
      "name": "TokenRemoved",
      "type": "event"
    },
    {
      "anonymous": false,
      "inputs": [
        {
          "indexed": true,
          "internalType": "address",
          "name": "from",
          "type": "address"
        },
        {
          "indexed": true,
          "internalType": "address",
          "name": "to",
          "type": "address"
        },
        {
          "indexed": true,
          "internalType": "uint256",
          "name": "tokenId",
          "type": "uint256"
        }
      ],
      "name": "Transfer",
      "type": "event"
    },
    {
      "inputs": [],
      "name": "LENS_CHAIN_ID",
      "outputs": [
        {
          "internalType": "uint256",
          "name": "",
          "type": "uint256"
        }
      ],
      "stateMutability": "view",
      "type": "function"
    },
    {
      "inputs": [],
      "name": "NATIVE_TOKEN",
      "outputs": [
        {
          "internalType": "address",
          "name": "",
          "type": "address"
        }
      ],
      "stateMutability": "view",
      "type": "function"
    },
    {
      "inputs": [
        {
          "internalType": "address",
          "name": "token",
          "type": "address"
        }
      ],
      "name": "addSupportedToken",
      "outputs": [],
      "stateMutability": "nonpayable",
      "type": "function"
    },
    {
      "inputs": [
        {
          "internalType": "address",
          "name": "to",
          "type": "address"
        },
        {
          "internalType": "uint256",
          "name": "tokenId",
          "type": "uint256"
        }
      ],
      "name": "approve",
      "outputs": [],
      "stateMutability": "nonpayable",
      "type": "function"
    },
    {
      "inputs": [
        {
          "internalType": "address",
          "name": "owner",
          "type": "address"
        }
      ],
      "name": "balanceOf",
      "outputs": [
        {
          "internalType": "uint256",
          "name": "",
          "type": "uint256"
        }
      ],
      "stateMutability": "view",
      "type": "function"
    },
    {
      "inputs": [
        {
          "internalType": "uint256",
          "name": "tokenId",
          "type": "uint256"
        }
      ],
      "name": "getApproved",
      "outputs": [
        {
          "internalType": "address",
          "name": "",
          "type": "address"
        }
      ],
      "stateMutability": "view",
      "type": "function"
    },
    {
      "inputs": [
        {
          "internalType": "address",
          "name": "token",
          "type": "address"
        }
      ],
      "name": "getTokenDecimals",
      "outputs": [
        {
          "internalType": "uint8",
          "name": "",
          "type": "uint8"
        }
      ],
      "stateMutability": "view",
      "type": "function"
    },
    {
      "inputs": [],
      "name": "getTokenIdCounter",
      "outputs": [
        {
          "internalType": "uint256",
          "name": "",
          "type": "uint256"
        }
      ],
      "stateMutability": "view",
      "type": "function"
    },
    {
      "inputs": [
        {
          "internalType": "address",
          "name": "owner",
          "type": "address"
        },
        {
          "internalType": "address",
          "name": "operator",
          "type": "address"
        }
      ],
      "name": "isApprovedForAll",
      "outputs": [
        {
          "internalType": "bool",
          "name": "",
          "type": "bool"
        }
      ],
      "stateMutability": "view",
      "type": "function"
    },
    {
      "inputs": [],
      "name": "name",
      "outputs": [
        {
          "internalType": "string",
          "name": "",
          "type": "string"
        }
      ],
      "stateMutability": "view",
      "type": "function"
    },
    {
      "inputs": [],
      "name": "openActionAddress",
      "outputs": [
        {
          "internalType": "address",
          "name": "",
          "type": "address"
        }
      ],
      "stateMutability": "view",
      "type": "function"
    },
    {
      "inputs": [],
      "name": "owner",
      "outputs": [
        {
          "internalType": "address",
          "name": "",
          "type": "address"
        }
      ],
      "stateMutability": "view",
      "type": "function"
    },
    {
      "inputs": [
        {
          "internalType": "uint256",
          "name": "tokenId",
          "type": "uint256"
        }
      ],
      "name": "ownerOf",
      "outputs": [
        {
          "internalType": "address",
          "name": "",
          "type": "address"
        }
      ],
      "stateMutability": "view",
      "type": "function"
    },
    {
      "inputs": [
        {
          "internalType": "address",
          "name": "token",
          "type": "address"
        }
      ],
      "name": "removeSupportedToken",
      "outputs": [],
      "stateMutability": "nonpayable",
      "type": "function"
    },
    {
      "inputs": [],
      "name": "renounceOwnership",
      "outputs": [],
      "stateMutability": "nonpayable",
      "type": "function"
    },
    {
      "inputs": [
        {
          "internalType": "address",
          "name": "from",
          "type": "address"
        },
        {
          "internalType": "address",
          "name": "to",
          "type": "address"
        },
        {
          "internalType": "uint256",
          "name": "tokenId",
          "type": "uint256"
        }
      ],
      "name": "safeTransferFrom",
      "outputs": [],
      "stateMutability": "nonpayable",
      "type": "function"
    },
    {
      "inputs": [
        {
          "internalType": "address",
          "name": "from",
          "type": "address"
        },
        {
          "internalType": "address",
          "name": "to",
          "type": "address"
        },
        {
          "internalType": "uint256",
          "name": "tokenId",
          "type": "uint256"
        },
        {
          "internalType": "bytes",
          "name": "data",
          "type": "bytes"
        }
      ],
      "name": "safeTransferFrom",
      "outputs": [],
      "stateMutability": "nonpayable",
      "type": "function"
    },
    {
      "inputs": [
        {
          "internalType": "address",
          "name": "operator",
          "type": "address"
        },
        {
          "internalType": "bool",
          "name": "approved",
          "type": "bool"
        }
      ],
      "name": "setApprovalForAll",
      "outputs": [],
      "stateMutability": "nonpayable",
      "type": "function"
    },
    {
      "inputs": [
        {
          "internalType": "address",
          "name": "newAddress",
          "type": "address"
        }
      ],
      "name": "setOpenActionAddress",
      "outputs": [],
      "stateMutability": "nonpayable",
      "type": "function"
    },
    {
      "inputs": [
        {
          "internalType": "address",
          "name": "token",
          "type": "address"
        },
        {
          "internalType": "uint8",
          "name": "decimals",
          "type": "uint8"
        }
      ],
      "name": "setTokenDecimals",
      "outputs": [],
      "stateMutability": "nonpayable",
      "type": "function"
    },
    {
      "inputs": [
        {
          "internalType": "address",
          "name": "",
          "type": "address"
        }
      ],
      "name": "supportedTokens",
      "outputs": [
        {
          "internalType": "bool",
          "name": "",
          "type": "bool"
        }
      ],
      "stateMutability": "view",
      "type": "function"
    },
    {
      "inputs": [
        {
          "internalType": "bytes4",
          "name": "interfaceId",
          "type": "bytes4"
        }
      ],
      "name": "supportsInterface",
      "outputs": [
        {
          "internalType": "bool",
          "name": "",
          "type": "bool"
        }
      ],
      "stateMutability": "view",
      "type": "function"
    },
    {
      "inputs": [],
      "name": "symbol",
      "outputs": [
        {
          "internalType": "string",
          "name": "",
          "type": "string"
        }
      ],
      "stateMutability": "view",
      "type": "function"
    },
    {
      "inputs": [
        {
          "internalType": "address",
          "name": "creator",
          "type": "address"
        },
        {
          "internalType": "uint256",
          "name": "amount",
          "type": "uint256"
        },
        {
          "internalType": "address",
          "name": "token",
          "type": "address"
        },
        {
          "internalType": "string",
          "name": "metadataURI",
          "type": "string"
        }
      ],
      "name": "tip",
      "outputs": [],
      "stateMutability": "payable",
      "type": "function"
    },
    {
      "inputs": [
        {
          "internalType": "uint256",
          "name": "tokenId",
          "type": "uint256"
        }
      ],
      "name": "tokenURI",
      "outputs": [
        {
          "internalType": "string",
          "name": "",
          "type": "string"
        }
      ],
      "stateMutability": "view",
      "type": "function"
    },
    {
      "inputs": [
        {
          "internalType": "address",
          "name": "from",
          "type": "address"
        },
        {
          "internalType": "address",
          "name": "to",
          "type": "address"
        },
        {
          "internalType": "uint256",
          "name": "tokenId",
          "type": "uint256"
        }
      ],
      "name": "transferFrom",
      "outputs": [],
      "stateMutability": "nonpayable",
      "type": "function"
    },
    {
      "inputs": [
        {
          "internalType": "address",
          "name": "newOwner",
          "type": "address"
        }
      ],
      "name": "transferOwnership",
      "outputs": [],
      "stateMutability": "nonpayable",
      "type": "function"
    }
  ],
  "bytecode": "0x608060405234801561001057600080fd5b50604051612de4380380612de483398101604081905261002f916102aa565b6040518060400160405280601481526020017f43726561746f7254697020537570706f727465720000000000000000000000008152506040518060400160405280600381526020016243545360e81b81525081600090816100909190610416565b50600161009d8282610416565b5050506100b66100b161022260201b60201c565b610226565b60016008556001600160a01b0382161515806100d357506190f746145b6101335760405162461bcd60e51b815260206004820152602760248201527f43726561746f725469703a20696e76616c6964204f70656e20416374696f6e206044820152666164647265737360c81b606482015260840160405180910390fd5b600a80546001600160a01b0319166001600160a01b038416179055805160005b81811015610219576001600b6000858481518110610173576101736104d4565b60200260200101516001600160a01b03166001600160a01b0316815260200190815260200160002060006101000a81548160ff0219169083151502179055507f784c8f4dbf0ffedd6e72c76501c545a70f8b203b30a26ce542bf92ba87c248a48382815181106101e5576101e56104d4565b602002602001015160405161020991906001600160a01b0391909116815260200190565b60405180910390a1600101610153565b505050506104ea565b3390565b600780546001600160a01b038381166001600160a01b0319831681179093556040519116919082907f8be0079c531659141344cd1fd0a4f28419497f9722a3daafe3b4186f6b6457e090600090a35050565b80516001600160a01b038116811461028f57600080fd5b919050565b634e487b7160e01b600052604160045260246000fd5b600080604083850312156102bd57600080fd5b6102c683610278565b60208401519092506001600160401b038111156102e257600080fd5b8301601f810185136102f357600080fd5b80516001600160401b0381111561030c5761030c610294565b604051600582901b90603f8201601f191681016001600160401b038111828210171561033a5761033a610294565b60405291825260208184018101929081018884111561035857600080fd5b6020850194505b8385101561037e5761037085610278565b81526020948501940161035f565b50809450505050509250929050565b600181811c908216806103a157607f821691505b6020821081036103c157634e487b7160e01b600052602260045260246000fd5b50919050565b601f82111561041157806000526020600020601f840160051c810160208510156103ee5750805b601f840160051c820191505b8181101561040e57600081556001016103fa565b50505b505050565b81516001600160401b0381111561042f5761042f610294565b6104438161043d845461038d565b846103c7565b6020601f821160018114610477576000831561045f5750848201515b600019600385901b1c1916600184901b17845561040e565b600084815260208120601f198516915b828110156104a75787850151825560209485019460019092019101610487565b50848210156104c55786840151600019600387901b60f8161c191681555b50505050600190811b01905550565b634e487b7160e01b600052603260045260246000fd5b6128eb806104f96000396000f3fe60806040526004361061019c5760003560e01c8063715018a6116100ec578063b88d4fde1161008a578063dbfd4b9811610064578063dbfd4b98146104b5578063e7290f1c146104ca578063e985e9c5146104dd578063f2fde38b146104fd57600080fd5b8063b88d4fde14610455578063c87b56dd14610475578063d171cdc21461049557600080fd5b806383fcaac6116100c657806383fcaac6146103ec5780638da5cb5b1461040257806395d89b4114610420578063a22cb4651461043557600080fd5b8063715018a614610385578063763191901461039a578063785c7cf6146103ba57600080fd5b806342842e0e116101595780636352211e116101335780636352211e146102e757806368c4ac26146103075780636d69fcaf1461033757806370a082311461035757600080fd5b806342842e0e14610287578063452b4797146102a75780635cdcd8bb146102c757600080fd5b806301ffc9a7146101a157806306fdde03146101d6578063081812fc146101f8578063095ea7b31461023057806323b872dd1461025257806331f7d96414610272575b600080fd5b3480156101ad57600080fd5b506101c16101bc3660046120b9565b61051d565b60405190151581526020015b60405180910390f35b3480156101e257600080fd5b506101eb610548565b6040516101cd9190612126565b34801561020457600080fd5b50610218610213366004612139565b6105da565b6040516001600160a01b0390911681526020016101cd565b34801561023c57600080fd5b5061025061024b36600461216e565b610601565b005b34801561025e57600080fd5b5061025061026d366004612198565b61071b565b34801561027e57600080fd5b50610218600081565b34801561029357600080fd5b506102506102a2366004612198565b61074c565b3480156102b357600080fd5b50600a54610218906001600160a01b031681565b3480156102d357600080fd5b506102506102e23660046121e4565b610767565b3480156102f357600080fd5b50610218610302366004612139565b610804565b34801561031357600080fd5b506101c161032236600461221b565b600b6020526000908152604090205460ff1681565b34801561034357600080fd5b5061025061035236600461221b565b610864565b34801561036357600080fd5b5061037761037236600461221b565b610927565b6040519081526020016101cd565b34801561039157600080fd5b506102506109ad565b3480156103a657600080fd5b506102506103b536600461221b565b6109c1565b3480156103c657600080fd5b506103da6103d536600461221b565b610a82565b60405160ff90911681526020016101cd565b3480156103f857600080fd5b506103776190f781565b34801561040e57600080fd5b506007546001600160a01b0316610218565b34801561042c57600080fd5b506101eb610b2c565b34801561044157600080fd5b50610250610450366004612244565b610b3b565b34801561046157600080fd5b50610250610470366004612286565b610b4a565b34801561048157600080fd5b506101eb610490366004612139565b610b82565b3480156104a157600080fd5b506102506104b036600461221b565b610c92565b3480156104c157600080fd5b50600954610377565b6102506104d836600461236a565b610d22565b3480156104e957600080fd5b506101c16104f8366004612407565b61122e565b34801561050957600080fd5b5061025061051836600461221b565b61125c565b60006001600160e01b03198216632483248360e11b14806105425750610542826112d5565b92915050565b6060600080546105579061243a565b80601f01602080910402602001604051908101604052809291908181526020018280546105839061243a565b80156105d05780601f106105a5576101008083540402835291602001916105d0565b820191906000526020600020905b8154815290600101906020018083116105b357829003601f168201915b5050505050905090565b60006105e582611325565b506000908152600460205260409020546001600160a01b031690565b600061060c82610804565b9050806001600160a01b0316836001600160a01b03160361067e5760405162461bcd60e51b815260206004820152602160248201527f4552433732313a20617070726f76616c20746f2063757272656e74206f776e656044820152603960f91b60648201526084015b60405180910390fd5b336001600160a01b038216148061069a575061069a813361122e565b61070c5760405162461bcd60e51b815260206004820152603d60248201527f4552433732313a20617070726f76652063616c6c6572206973206e6f7420746f60448201527f6b656e206f776e6572206f7220617070726f76656420666f7220616c6c0000006064820152608401610675565b6107168383611384565b505050565b61072533826113f2565b6107415760405162461bcd60e51b815260040161067590612474565b610716838383611450565b61071683838360405180602001604052806000815250610b4a565b61076f6115b4565b6001600160a01b0382166000908152600b602052604090205460ff166107d75760405162461bcd60e51b815260206004820152601f60248201527f43726561746f725469703a20746f6b656e206e6f7420737570706f72746564006044820152606401610675565b6001600160a01b03919091166000908152600c60205260409020805460ff191660ff909216919091179055565b6000818152600260205260408120546001600160a01b0316806105425760405162461bcd60e51b8152602060048201526018602482015277115490cdcc8c4e881a5b9d985b1a59081d1bdad95b88125160421b6044820152606401610675565b61086c6115b4565b6001600160a01b0381166108cc5760405162461bcd60e51b815260206004820152602160248201527f43726561746f725469703a20696e76616c696420746f6b656e206164647265736044820152607360f81b6064820152608401610675565b6001600160a01b0381166000818152600b6020908152604091829020805460ff1916600117905590519182527f784c8f4dbf0ffedd6e72c76501c545a70f8b203b30a26ce542bf92ba87c248a491015b60405180910390a150565b60006001600160a01b0382166109915760405162461bcd60e51b815260206004820152602960248201527f4552433732313a2061646472657373207a65726f206973206e6f7420612076616044820152683634b21037bbb732b960b91b6064820152608401610675565b506001600160a01b031660009081526003602052604090205490565b6109b56115b4565b6109bf600061160e565b565b6109c96115b4565b6001600160a01b0381166000908152600b602052604090205460ff16610a315760405162461bcd60e51b815260206004820152601f60248201527f43726561746f725469703a20746f6b656e206e6f7420737570706f72746564006044820152606401610675565b6001600160a01b0381166000818152600b6020908152604091829020805460ff1916905590519182527f4c910b69fe65a61f7531b9c5042b2329ca7179c77290aa7e2eb3afa3c8511fd3910161091c565b60006001600160a01b038216610a9a57506012919050565b6001600160a01b0382166000908152600c602052604081205460ff169081900361054257826001600160a01b031663313ce5676040518163ffffffff1660e01b8152600401602060405180830381865afa925050508015610b18575060408051601f3d908101601f19168201909252610b15918101906124c1565b60015b610b255750601292915050565b9392505050565b6060600180546105579061243a565b610b46338383611660565b5050565b610b5433836113f2565b610b705760405162461bcd60e51b815260040161067590612474565b610b7c8484848461172e565b50505050565b6060610b8d82611325565b60008281526006602052604081208054610ba69061243a565b80601f0160208091040260200160405190810160405280929190818152602001828054610bd29061243a565b8015610c1f5780601f10610bf457610100808354040283529160200191610c1f565b820191906000526020600020905b815481529060010190602001808311610c0257829003601f168201915b505050505090506000610c3d60408051602081019091526000815290565b90508051600003610c4f575092915050565b815115610c81578082604051602001610c699291906124de565b60405160208183030381529060405292505050919050565b610c8a84611761565b949350505050565b610c9a6115b4565b6001600160a01b038116610d005760405162461bcd60e51b815260206004820152602760248201527f43726561746f725469703a20696e76616c6964204f70656e20416374696f6e206044820152666164647265737360c81b6064820152608401610675565b600a80546001600160a01b0319166001600160a01b0392909216919091179055565b600a546001600160a01b0316158015610d3c57506190f746145b15610f7d57610d496117d4565b6001600160a01b038516610d6f5760405162461bcd60e51b81526004016106759061250d565b60008411610d8f5760405162461bcd60e51b815260040161067590612550565b80610ddc5760405162461bcd60e51b815260206004820181905260248201527f43726561746f725469703a20696e76616c6964206d65746164617461205552496044820152606401610675565b6001600160a01b0383166000908152600b602052604090205460ff1680610e0a57506001600160a01b038316155b610e565760405162461bcd60e51b815260206004820152601d60248201527f43726561746f725469703a20756e737570706f7274656420746f6b656e0000006044820152606401610675565b326001600160a01b038416610efd57843414610e845760405162461bcd60e51b81526004016106759061259d565b6000866001600160a01b03168660405160006040518083038185875af1925050503d8060008114610ed1576040519150601f19603f3d011682016040523d82523d6000602084013e610ed6565b606091505b5050905080610ef75760405162461bcd60e51b8152600401610675906125e6565b50610f12565b610f126001600160a01b03851682888861182d565b604080518681526001600160a01b03868116602083015246828401529151838316928916917f84a4e0b264f44787c9031c20ec8699d63d638ffc07f747301652547449f662a1919081900360600190a3610f6d818484611887565b50610f786001600855565b611227565b600a546001600160a01b03163314610ff05760405162461bcd60e51b815260206004820152603060248201527f43726561746f725469703a2063616c6c6572206973206e6f7420617574686f7260448201526f34bd32b21027b832b71020b1ba34b7b760811b6064820152608401610675565b610ff86117d4565b6001600160a01b03851661101e5760405162461bcd60e51b81526004016106759061250d565b6000841161103e5760405162461bcd60e51b815260040161067590612550565b8061108b5760405162461bcd60e51b815260206004820181905260248201527f43726561746f725469703a20696e76616c6964206d65746164617461205552496044820152606401610675565b6001600160a01b0383166000908152600b602052604090205460ff16806110b957506001600160a01b038316155b6111055760405162461bcd60e51b815260206004820152601d60248201527f43726561746f725469703a20756e737570706f7274656420746f6b656e0000006044820152606401610675565b326001600160a01b0384166111ac578434146111335760405162461bcd60e51b81526004016106759061259d565b6000866001600160a01b03168660405160006040518083038185875af1925050503d8060008114611180576040519150601f19603f3d011682016040523d82523d6000602084013e611185565b606091505b50509050806111a65760405162461bcd60e51b8152600401610675906125e6565b506111c1565b6111c16001600160a01b03851682888861182d565b604080518681526001600160a01b03868116602083015246828401529151838316928916917f84a4e0b264f44787c9031c20ec8699d63d638ffc07f747301652547449f662a1919081900360600190a361121c818484611887565b506112276001600855565b5050505050565b6001600160a01b03918216600090815260056020908152604080832093909416825291909152205460ff1690565b6112646115b4565b6001600160a01b0381166112c95760405162461bcd60e51b815260206004820152602660248201527f4f776e61626c653a206e6577206f776e657220697320746865207a65726f206160448201526564647265737360d01b6064820152608401610675565b6112d28161160e565b50565b60006001600160e01b031982166380ac58cd60e01b148061130657506001600160e01b03198216635b5e139f60e01b145b8061054257506301ffc9a760e01b6001600160e01b0319831614610542565b6000818152600260205260409020546001600160a01b03166112d25760405162461bcd60e51b8152602060048201526018602482015277115490cdcc8c4e881a5b9d985b1a59081d1bdad95b88125160421b6044820152606401610675565b600081815260046020526040902080546001600160a01b0319166001600160a01b03841690811790915581906113b982610804565b6001600160a01b03167f8c5be1e5ebec7d5bd14f71427d1e84f3dd0314c0f7b2291e5b200ac8c7c3b92560405160405180910390a45050565b6000806113fe83610804565b9050806001600160a01b0316846001600160a01b031614806114255750611425818561122e565b80610c8a5750836001600160a01b031661143e846105da565b6001600160a01b031614949350505050565b826001600160a01b031661146382610804565b6001600160a01b0316146114895760405162461bcd60e51b81526004016106759061262e565b6001600160a01b0382166114eb5760405162461bcd60e51b8152602060048201526024808201527f4552433732313a207472616e7366657220746f20746865207a65726f206164646044820152637265737360e01b6064820152608401610675565b826001600160a01b03166114fe82610804565b6001600160a01b0316146115245760405162461bcd60e51b81526004016106759061262e565b600081815260046020908152604080832080546001600160a01b03199081169091556001600160a01b0387811680865260038552838620805460001901905590871680865283862080546001019055868652600290945282852080549092168417909155905184937fddf252ad1be2c89b69c2b068fc378daa952ba7f163c4a11628f55a4df523b3ef91a4505050565b6007546001600160a01b031633146109bf5760405162461bcd60e51b815260206004820181905260248201527f4f776e61626c653a2063616c6c6572206973206e6f7420746865206f776e65726044820152606401610675565b600780546001600160a01b038381166001600160a01b0319831681179093556040519116919082907f8be0079c531659141344cd1fd0a4f28419497f9722a3daafe3b4186f6b6457e090600090a35050565b816001600160a01b0316836001600160a01b0316036116c15760405162461bcd60e51b815260206004820152601960248201527f4552433732313a20617070726f766520746f2063616c6c6572000000000000006044820152606401610675565b6001600160a01b03838116600081815260056020908152604080832094871680845294825291829020805460ff191686151590811790915591519182527f17307eab39ab6107e8899845ad3d59bd9653f200f220920489ca2b5937696c31910160405180910390a3505050565b611739848484611450565b61174584848484611937565b610b7c5760405162461bcd60e51b815260040161067590612673565b606061176c82611325565b600061178360408051602081019091526000815290565b905060008151116117a35760405180602001604052806000815250610b25565b806117ad84611a38565b6040516020016117be9291906124de565b6040516020818303038152906040529392505050565b6002600854036118265760405162461bcd60e51b815260206004820152601f60248201527f5265656e7472616e637947756172643a207265656e7472616e742063616c6c006044820152606401610675565b6002600855565b604080516001600160a01b0385811660248301528416604482015260648082018490528251808303909101815260849091019091526020810180516001600160e01b03166323b872dd60e01b179052610b7c908590611acb565b6009546118948482611ba0565b6118d48184848080601f016020809104026020016040519081016040528093929190818152602001838380828437600092019190915250611bba92505050565b836001600160a01b03167fd19eaa3a3e19e32d16d5969e6e28376d83c89960632dbabc124bf5bf03c0683d828585604051611911939291906126c5565b60405180910390a260016009600082825461192c91906126fb565b909155505050505050565b60006001600160a01b0384163b15611a2d57604051630a85bd0160e11b81526001600160a01b0385169063150b7a029061197b90339089908890889060040161271c565b6020604051808303816000875af19250505080156119b6575060408051601f3d908101601f191682019092526119b391810190612759565b60015b611a13573d8080156119e4576040519150601f19603f3d011682016040523d82523d6000602084013e6119e9565b606091505b508051600003611a0b5760405162461bcd60e51b815260040161067590612673565b805181602001fd5b6001600160e01b031916630a85bd0160e11b149050610c8a565b506001949350505050565b60606000611a4583611c85565b600101905060008167ffffffffffffffff811115611a6557611a65612270565b6040519080825280601f01601f191660200182016040528015611a8f576020820181803683370190505b5090508181016020015b600019016f181899199a1a9b1b9c1cb0b131b232b360811b600a86061a8153600a8504945084611a9957509392505050565b6000611b20826040518060400160405280602081526020017f5361666545524332303a206c6f772d6c6576656c2063616c6c206661696c6564815250856001600160a01b0316611d5d9092919063ffffffff16565b9050805160001480611b41575080806020019051810190611b419190612776565b6107165760405162461bcd60e51b815260206004820152602a60248201527f5361666545524332303a204552433230206f7065726174696f6e20646964206e6044820152691bdd081cdd58d8d9595960b21b6064820152608401610675565b610b46828260405180602001604052806000815250611d6c565b6000828152600260205260409020546001600160a01b0316611c355760405162461bcd60e51b815260206004820152602e60248201527f45524337323155524953746f726167653a2055524920736574206f66206e6f6e60448201526d32bc34b9ba32b73a103a37b5b2b760911b6064820152608401610675565b6000828152600660205260409020611c4d82826127da565b506040518281527ff8e1a15aba9398e019f0b49df1a4fde98ee17ae345cb5f6b5e2c27f5033e8ce79060200160405180910390a15050565b60008072184f03e93ff9f4daa797ed6e38ed64bf6a1f0160401b8310611cc45772184f03e93ff9f4daa797ed6e38ed64bf6a1f0160401b830492506040015b6d04ee2d6d415b85acef81000000008310611cf0576d04ee2d6d415b85acef8100000000830492506020015b662386f26fc100008310611d0e57662386f26fc10000830492506010015b6305f5e1008310611d26576305f5e100830492506008015b6127108310611d3a57612710830492506004015b60648310611d4c576064830492506002015b600a83106105425760010192915050565b6060610c8a8484600085611d9f565b611d768383611e7a565b611d836000848484611937565b6107165760405162461bcd60e51b815260040161067590612673565b606082471015611e005760405162461bcd60e51b815260206004820152602660248201527f416464726573733a20696e73756666696369656e742062616c616e636520666f6044820152651c8818d85b1b60d21b6064820152608401610675565b600080866001600160a01b03168587604051611e1c9190612899565b60006040518083038185875af1925050503d8060008114611e59576040519150601f19603f3d011682016040523d82523d6000602084013e611e5e565b606091505b5091509150611e6f87838387612005565b979650505050505050565b6001600160a01b038216611ed05760405162461bcd60e51b815260206004820181905260248201527f4552433732313a206d696e7420746f20746865207a65726f20616464726573736044820152606401610675565b6000818152600260205260409020546001600160a01b031615611f355760405162461bcd60e51b815260206004820152601c60248201527f4552433732313a20746f6b656e20616c7265616479206d696e746564000000006044820152606401610675565b6000818152600260205260409020546001600160a01b031615611f9a5760405162461bcd60e51b815260206004820152601c60248201527f4552433732313a20746f6b656e20616c7265616479206d696e746564000000006044820152606401610675565b6001600160a01b038216600081815260036020908152604080832080546001019055848352600290915280822080546001600160a01b0319168417905551839291907fddf252ad1be2c89b69c2b068fc378daa952ba7f163c4a11628f55a4df523b3ef908290a45050565b6060831561207457825160000361206d576001600160a01b0385163b61206d5760405162461bcd60e51b815260206004820152601d60248201527f416464726573733a2063616c6c20746f206e6f6e2d636f6e74726163740000006044820152606401610675565b5081610c8a565b610c8a83838151156120895781518083602001fd5b8060405162461bcd60e51b81526004016106759190612126565b6001600160e01b0319811681146112d257600080fd5b6000602082840312156120cb57600080fd5b8135610b25816120a3565b60005b838110156120f15781810151838201526020016120d9565b50506000910152565b600081518084526121128160208601602086016120d6565b601f01601f19169290920160200192915050565b602081526000610b2560208301846120fa565b60006020828403121561214b57600080fd5b5035919050565b80356001600160a01b038116811461216957600080fd5b919050565b6000806040838503121561218157600080fd5b61218a83612152565b946020939093013593505050565b6000806000606084860312156121ad57600080fd5b6121b684612152565b92506121c460208501612152565b929592945050506040919091013590565b60ff811681146112d257600080fd5b600080604083850312156121f757600080fd5b61220083612152565b91506020830135612210816121d5565b809150509250929050565b60006020828403121561222d57600080fd5b610b2582612152565b80151581146112d257600080fd5b6000806040838503121561225757600080fd5b61226083612152565b9150602083013561221081612236565b634e487b7160e01b600052604160045260246000fd5b6000806000806080858703121561229c57600080fd5b6122a585612152565b93506122b360208601612152565b925060408501359150606085013567ffffffffffffffff8111156122d657600080fd5b8501601f810187136122e757600080fd5b803567ffffffffffffffff81111561230157612301612270565b604051601f8201601f19908116603f0116810167ffffffffffffffff8111828210171561233057612330612270565b60405281815282820160200189101561234857600080fd5b8160208401602083013760006020838301015280935050505092959194509250565b60008060008060006080868803121561238257600080fd5b61238b86612152565b9450602086013593506123a060408701612152565b9250606086013567ffffffffffffffff8111156123bc57600080fd5b8601601f810188136123cd57600080fd5b803567ffffffffffffffff8111156123e457600080fd5b8860208284010111156123f657600080fd5b959894975092955050506020019190565b6000806040838503121561241a57600080fd5b61242383612152565b915061243160208401612152565b90509250929050565b600181811c9082168061244e57607f821691505b60208210810361246e57634e487b7160e01b600052602260045260246000fd5b50919050565b6020808252602d908201527f4552433732313a2063616c6c6572206973206e6f7420746f6b656e206f776e6560408201526c1c881bdc88185c1c1c9bdd9959609a1b606082015260800190565b6000602082840312156124d357600080fd5b8151610b25816121d5565b600083516124f08184602088016120d6565b8351908301906125048183602088016120d6565b01949350505050565b60208082526023908201527f43726561746f725469703a20696e76616c69642063726561746f72206164647260408201526265737360e81b606082015260800190565b6020808252602d908201527f43726561746f725469703a2074697020616d6f756e74206d757374206265206760408201526c0726561746572207468616e203609c1b606082015260800190565b60208082526029908201527f43726561746f725469703a20696e636f7272656374206e617469766520746f6b604082015268195b88185b5bdd5b9d60ba1b606082015260800190565b60208082526028908201527f43726561746f725469703a206e617469766520746f6b656e207472616e7366656040820152671c8819985a5b195960c21b606082015260800190565b60208082526025908201527f4552433732313a207472616e736665722066726f6d20696e636f72726563742060408201526437bbb732b960d91b606082015260800190565b60208082526032908201527f4552433732313a207472616e7366657220746f206e6f6e20455243373231526560408201527131b2b4bb32b91034b6b83632b6b2b73a32b960711b606082015260800190565b83815260406020820152816040820152818360608301376000818301606090810191909152601f909201601f1916010192915050565b8082018082111561054257634e487b7160e01b600052601160045260246000fd5b6001600160a01b038581168252841660208201526040810183905260806060820181905260009061274f908301846120fa565b9695505050505050565b60006020828403121561276b57600080fd5b8151610b25816120a3565b60006020828403121561278857600080fd5b8151610b2581612236565b601f82111561071657806000526020600020601f840160051c810160208510156127ba5750805b601f840160051c820191505b8181101561122757600081556001016127c6565b815167ffffffffffffffff8111156127f4576127f4612270565b61280881612802845461243a565b84612793565b6020601f82116001811461283c57600083156128245750848201515b600019600385901b1c1916600184901b178455611227565b600084815260208120601f198516915b8281101561286c578785015182556020948501946001909201910161284c565b508482101561288a5786840151600019600387901b60f8161c191681555b50505050600190811b01905550565b600082516128ab8184602087016120d6565b919091019291505056fea2646970667358221220e753a524fd535d2b3ac5f963876c4b5051de292a621f5b175f8a32bc63ed7cbc64736f6c634300081b0033",
  "linkReferences": {},
  "deployedLinkReferences": {}
}